:020000040800F2
:100000003809002001010008431A0008CD13000838
:10001000411A0008FD0300086F1F000800000000DF
:10002000000000000000000000000000F11B0008BC
:100030003704000800000000451A0008AD1C000845
:100040001B0100081B0100081B0100081B01000820
:100050001B0100081B0100081B0100081B01000810
:100060001B0100081B0100081B0100081B01000800
:100070001B0100081B0100081B0100080104000807
:100080001B0100081B0100081B0100081B010008E0
:100090001B0100081B0100081B0100081B010008D0
:1000A0001B0100081B0100081B0100081B010008C0
:1000B0001B0100081B0100081B0100081B010008B0
:1000C0001B0100081B0100081B0100081B010008A0
:1000D0001B010008951E00081B0100081B010008F9
:1000E0001B0100081B0100081B010008DFF80CD0F1
:1000F00000F064F900480047552B0008380900203B
:100100000648804706480047FEE7FEE7FEE7FEE7B1
:10011000FEE7FEE7FEE7FEE7FEE7FEE7231D000839
:10012000ED000008D2B201E000F8012B491EFBD21D
:1001300070470022F6E710B513460A4604461946F2
:10014000FFF7F0FF204610BDF0B480EA0102D40FA3
:100150004200B2EB410F02D20246084611464A0065
:1001600042D0C30DDDB2C1F3C752AD1A202D35DA2E
:10017000C1F3160141F4000204B15242C5F1200658
:1001800002FA06F12A411044B3EBD05F23D0C4B188
:10019000012DA0EBC35009DCF0BC4FF0004202EA95
:1001A000C352DBB200F5000000F0D9B8400000F106
:1001B000807000EBC350A0F1807040EAD17049001C
:1001C00009E0490841EAC071A0EBC35000F5000006
:1001D000400800EBC350F0BC00F0B8B86142012207
:1001E00002EB4101001BF6E7F0BC704781F00041D3
:1001F000AAE780F00040A7E780EA010210B502F00C
:100200000043400022D04A001FD0010E01EB1261D2
:10021000C0F35600C2F3560240F4000042F400025C
:10022000A0FB022000047F39140400D0401C50EAD7
:10023000124001D44000491EC2B20C0604EBD0109B
:10024000401C4008802A02D003E0002010BD20F0AE
:100250000100002900DA0020184310BD30B480EA04
:10026000010202F0004530F0004221F0004013D0BE
:1002700090B1C30DD40DC2F31601C0F31600E41AF9
:1002800041F4000140F400027D34914201D3641C2A
:1002900000E04900002C02DA30BC002070474FF427
:1002A00000000023914201D3891A034340084FEA1A
:1002B0004101F7D151B1914202D14FF0004105E027
:1002C00002D24FF0010101E06FF0010103EBC450D5
:1002D000284430BC00F03AB8420005D0C0F3C75201
:1002E0005242914201DC0020704700EBC150704740
:1002F00096230022114600F032B820F00040C10DD4
:10030000C0F3160040F400007F2901DA0020704796
:10031000962903DCC1F19601C840704796398840A0
:1003200070470000002801DBC0F10040002901DB1C
:10033000C1F1004181427047002801DBC0F100405B
:10034000002901DBC1F10041884270470029A8BFA4
:100350007047401C490008BF20F00100704710B4EE
:10036000B0FA80FC00FA0CF050EA010404BF10BCA3
:10037000704749B1CCF1200421FA04F411FA0CF1D0
:1003800018BF012121430843A3EB0C01CB1D4FEA09
:1003900000614FEA102042BF002010BC704700EB04
:1003A000C35010440029A4BF10BC7047401C490032
:1003B00008BF20F0010010BC70470000064C074D3C
:1003C00006E0E06840F0010394E807009847103425
:1003D000AC42F6D3FFF78EFE902B0008B02B00083E
:1003E00010B501F030FBBDE8104000F026B810B5A4
:1003F00001F03BFBBDE8104000F021B8FEE7000033
:10040000014800F073B800002001002030B590F8DA
:1004100040500124AC40C56B6C6004686360436865
:10042000102B036803D099600068C26030BD9A60E9
:100430000068C16030BD7047704701F021BA01F01B
:1004400019BA00004FF40061014800F04FBA0000F3
:100450000008014010B590F821100024022903D0B3
:100460000421816301243DE001680A6822F00E0244
:100470000A6001680A6822F001020A601A4A0168EB
:10048000914201D1012121E0174A1432914201D158
:1004900010211BE0144A2832914201D1891515E040
:1004A000114A3C32914201D189140FE00E4A503278
:1004B000914202D14FF4803108E00B4A64329142FC
:1004C00002D14FF4801101E04FF08071064A083AE2
:1004D0005160012180F82110002180F82010416B2B
:1004E00001B18847204610BD080002402DE9F05FA9
:1004F000C16B0C6801680B68D0F840C0042202FA96
:100500000CF2494DDFF824A1494E4A4FDFF828B1DB
:10051000DFF828E122422CD05A072AD50A68920631
:1005200003D40A6822F004020A600168A94201D1DA
:10053000042219E0514501D1402215E0B14202D117
:100540004FF4806210E0B94202D14FF480420BE0D8
:10055000594502D14FF4802206E0714502D14FF493
:10056000800201E04FF080622F4908394A60C16A79
:100570003BE04FF0020808FA0CF818EA040F4FF0BD
:1005800000094FF0010235D05FEA837832D50B685D
:100590009B0605D40B6823F00A030B6080F821202A
:1005A0000168A94201D1022219E0514501D120225E
:1005B00015E0B14202D14FF4007210E0B94202D10D
:1005C0004FF400520BE0594502D14FF4003206E0DF
:1005D000714502D14FF4001201E04FF00072124950
:1005E00008394A6080F82090816A00291AD0BDE855
:1005F000F05F0847082505FA0CF5254212D01B07C5
:1006000010D50B6823F00E030B6090F84010C36BFD
:1006100002FA01F15960826380F8212080F820906D
:10062000016BE2E7BDE8F09F080002401C000240B9
:100630003000024044000240580002406C0002407A
:1006400030B528B308C8134914221944B1FBF2F19C
:100650008900C16310498163022141771A6843F61A
:10066000F0718A43D0E900142143D0E902452C43BC
:10067000214304692143446921438469214311438F
:10068000196000214163012242770177084630BD9D
:10069000012030BDF8FFFDBF0000024070B50446E8
:1006A00090F82000002501280CD0012084F82000BB
:1006B00094F821600020012E06D084F82000022545
:1006C000284670BD022070BD022684F82160A06318
:1006D0002068066826F0010606602046FFF796FEB1
:1006E000E06A00282068016802D041F00E0106E0AF
:1006F00021F0040101602068016841F00A010160F5
:100700002068016841F001010160D9E72DE9F84F47
:10071000DFF8B891002409F1040A0AF1040B23461A
:100720000F270BF1040EC9E00125A5402A40AA427B
:100730007DD1674ED1F804C0ACEB0608B44532D089
:1007400014DCBCF1030F3AD009DCBCF1000F2AD055
:10075000BCF1010F1CD0BCF1020F31D11DE0BCF186
:10076000110F17D0BCF1120F2AD119E0B8F5881F6C
:1007700019D006DCB8F5803F15D0B8F5801F1FD121
:1007800011E0B8F5001F0ED0B8F5041F18D10AE02B
:10079000CB6815E0CB681B1D12E0CB6808330FE077
:1007A000CB680C330CE08B682BB1012B4FF00803A6
:1007B00003D0456104E0042302E0056100E000236A
:1007C000FF2A01D8064601E000F104064FEA84053D
:1007D00001D9A5F12005D6F8008007FA05FC28EA22
:1007E0000C0803FA05F548EA0508C6F800804D68CC
:1007F000ED0062D5374DAE6946F00106AE61AD69D8
:1008000024F0030605F001050095334D06EB050CB9
:10081000DCF80850A607360F07FA06F825EA08059F
:10082000DFF8B880404503D14FF0000817E044E0FE
:10083000DFF8AC80404502D14FF001080FE0DFF84F
:10084000A480404502D14FF0020808E0DFF898800C
:10085000404502D14FF0030801E04FF0040808FAC8
:1008600006F848EA0508CCF808804D68D9F8006019
:10087000ED034D4601D5164300E096432E604D68CA
:10088000DAF80060AD03554601D5164300E0964303
:100890002E604D68DBF80060ED025D4601D5164321
:1008A00000E096432E604D68DEF80060AD027546AC
:1008B00001D5164300E096432E60641C0D682A465D
:1008C000E5407FF431AFBDE8F88F0000000401403F
:1008D000000011100010024000000140000801401B
:1008E000000C0140001001400014014080680840E5
:1008F00000D0012070470AB1016170470904FBE78D
:1009000001488068704700000400002002488168A8
:10091000027811448160704704000020074810B538
:10092000016841F010010160032000F075F800201B
:1009300000F006F800F024F8002010BD002002406E
:1009400070B50D4D04464FF47A712878B1FBF0F084
:100950000A490968B1FBF0F000F000FC48B9102C1E
:1009600007D200222146501E00F036F800206C60AD
:1009700070BD012070BD00000400002000000020B8
:100980000C4808B5816941F001018161816901F07C
:1009900001010091C16941F08051C161C06900F05D
:1009A000805000900448416821F0E06141F00071FE
:1009B000416008BD0010024000000140002809DB32
:1009C00000F01F02012191404009800000F1E02069
:1009D000C0F8001170470000F0B40E4B1B680C46C5
:1009E000C3F30223C3F10705042D00D90425191D03
:1009F000072901D2002300E0DB1E012606FA05F1DB
:100A0000491E214099409E40761E16403143F0BC5D
:100A100002F081B80CED00E0064900F0070208681A
:100A20004FF6FF03184040EA0220034A10430860D3
:100A3000704700000CED00E00000FA052DE9F047DA
:100A40000F46050061D0434E306800F00700B84201
:100A500009D2306820F0070038433060306800F079
:100A60000700B84251D128683B4C810712D5400796
:100A700003D5606840F4E06060602878000703D523
:100A8000606840F4605060606068A96820F0F00021
:100A9000084360602878C00728D06868012810D013
:100AA0002168022810D0890700292EDA616821F018
:100AB000030101436160FFF723FF804641F288395B
:100AC0000DE021688903EFE78901EDE7FFF718FFE3
:100AD000A0EB0801494502D90320BDE8F087606812
:100AE000696800F00C00B0EB810FEFD1306800F0C6
:100AF0000700B8420BD9306820F007003843306057
:100B0000306800F00700B84201D00120E5E72878FE
:100B1000400705D56068E96820F4E060084360603C
:100B20002878000706D56068296920F4605040EAFB
:100B3000C100606000F038F86168084AC1F3031131
:100B4000515CC8400649086006480068FFF7F8FE97
:100B50000020C2E70020024000100240762B00086F
:100B6000000000200800002004480549006849688A
:100B7000044AC1F30221515CC840704700000020C4
:100B800000100240862B00080448054900684968A7
:100B9000044AC1F3C221515CC840704700000020E4
:100BA00000100240862B000812A185B00FC98DE805
:100BB0000F0014A0144A006804905168134801F013
:100BC0000C03042B10D0082B0ED1C1F38343C903AF
:100BD0001DF803000AD5516804AAC1F34041515CD5
:100BE0000A4A5043B0FBF1F005B07047084948434A
:100BF000FAE7000002030405060708090A0B0C0DBA
:100C00000E0F1010010200000010024000127A00C6
:100C100000093D002DE9F84F040070D02078C04D48
:100C2000C00749D06868C0F38100012807D0686810
:100C3000C0F38100022809D16868C00306D528687E
:100C4000800339D560680028E7D035E06068B0F5EA
:100C5000803F0BD010B1B0F5A02F11D0286820F440
:100C600080302860286820F4802002E0286840F462
:100C700080302860606890B1FFF742FE06460AE0C7
:100C8000286840F480202860F0E700BFFFF738FEB6
:100C9000801B642873D828688003F7D50CE0FFF721
:100CA0002FFE064605E000BFFFF72AFE801B6428E2
:100CB000F0D828688003F7D420789A4E80074FF048
:100CC00001094FF0000839D5686810F00C0F07D003
:100CD0006868C0F38100022809D16868C00306D49F
:100CE0002868800714D52069012808D110E0206900
:100CF000B0B1C6F80090FFF703FE074605E00AE131
:100D0000FFF7FEFDC01B0228C4D828688007F7D56E
:100D10002868616920F0F80040EAC10028600DE011
:100D2000C6F80080FFF7ECFD074604E0FFF7E8FD9A
:100D3000C01B022823D828688007F7D42078000732
:100D40002CD57948A169D9B1C0F80090FFF7D8FD3A
:100D5000074604E0FFF7D4FDC01B02280FD8686ADD
:100D60008007F7D571484FF4FA510068B0FBF1F0F5
:100D7000009000BF0098411E0091FAD20EE080E082
:100D8000C0F80080FFF7BCFD074604E0FFF7B8FDA0
:100D9000C01B022875D8686A8007F7D420784007FE
:100DA00060D5E8690027C00008D4E86940F08050A9
:100DB000E861E869012700F0805000905C48016814
:100DC000C90513D40168834641F480710160FFF7BF
:100DD00097FD824606E000BFFFF792FDA0EB0A00F8
:100DE00064284ED8DBF80000C005F5D5E06801287E
:100DF0000AD008B1052813D0286A20F00100286223
:100E0000286A20F0040002E0286A40F0010028620D
:100E1000E06841F2883B98B1FFF772FD82460BE033
:100E2000286A40F004002862EEE700BFFFF768FD83
:100E3000A0EB0A0159455AD8286A8007F6D50CE07C
:100E4000FFF75EFD824605E0FFF75AFDA0EB0A01C1
:100E500059454CD8286A8007F6D41FB1E86920F0BC
:100E60008050E861E06988B36968C1F381010229B3
:100E700044D00228C6F8608004D0FFF741FD044644
:100E800038E034E0FFF73CFD074604E0FFF738FDAB
:100E9000C01B02282BD828688001F7D4206AB0F53F
:100EA000803F05D16868A16820F40030084368607D
:100EB000D4E908010843696821F4741108436860A3
:100EC000C6F86090FFF71CFD044606E025E000BF71
:100ED000FFF716FD001B022809D828688001F7D506
:100EE0001BE000BFFFF70CFD001B022802D9032006
:100EF000BDE8F88F28688001F4D40EE00128F7D00F
:100F00006868226A00F48031914204D1616A00F479
:100F10007010884201D00120EAE70020E8E70000D5
:100F200000100240000042428004424200000020C3
:100F300000700040704770B5040009D0606A002559
:100F400040B125616561A56294F8510040B10CE0A3
:100F5000012070BD6068B0F5827FF4D0E561F2E7F2
:100F600084F85050204600F03FF8022084F85100E9
:100F70002068016821F040010160A088218900F407
:100F8000827001F404410843A18901F4006108431F
:100F9000217C01F002010843217D01F00101084399
:100FA000218B01F400710843217F01F038010843CF
:100FB00094F8201001F080010843218D01F40051C4
:100FC000084321680860A069042101EA10402168F3
:100FD00048602068C16921F40061C1616565012034
:100FE00084F85100002070BD70B586B0002605461B
:100FF000009601960296039600681C49884232D1F9
:101000001B49C86940F48040C861C86900F4804049
:101010000490886940F0080088618869694600F09A
:10102000080004904FF4204000900220019003201B
:1010300003901048FFF76AFB104C0F482060102007
:10104000C4E901068020E060400020618000C4E91E
:101050000506C000E0612046FFF7F2FA08B1FFF78D
:10106000EBF9AC64656206B070BD0000003800406A
:1010700000100240000C01405800024020010020F6
:101080002DE9F041044690F850000026012809D0CF
:10109000012784F8507094F851000025012804D0ED
:1010A00002264EE00220BDE8F08189B182B1032022
:1010B00084F8510065652163A286E286A5636564B4
:1010C0002564A587E587A068B0F5004F02D00BE046
:1010D000012636E02068016821F0400101602068A7
:1010E000016841F480410160A16C1848C862A16C9C
:1010F00017488862A16C17480863A06C4563E38EAB
:101100002268216B0C32A06CFFF7C8FA38B1606D11
:1011100040F010006065012684F8517011E02068ED
:101120000168490603D4016841F04001016020686C
:10113000416841F0200141602068416841F00201AE
:10114000416084F850503046ADE70000AB1A00080B
:10115000B51A0008891A00087047704710B5401E7C
:10116000B0F1807F01D3012010BD4FF0E024606119
:101170000F21601701F0CFFC0020A0610720206143
:10118000002010BD7047000070B50268044610686A
:10119000D168536910F00F0F52D003F0010501F42C
:1011A00090762E435FD0C20705D0CA0503D5E26B07
:1011B00042F00102E263420705D5DA0703D0E26B91
:1011C00042F00202E263820705D5DA0703D0E26B40
:1011D00042F00402E263020707D501F020022A432D
:1011E00003D0E26B42F00802E263E26B002A33D0E4
:1011F000800604D5880602D5204600F0A9FD2068A7
:101200004069E16BC0F38010090700D428B3204681
:1012100000F090FD2068416949061AD5416921F026
:1012200040014161606BA0B12D494163606BFFF7E4
:1012300011F9002810D0606B416BBDE87040084781
:10124000830610D58B060ED52046BDE8704000F011
:101250007FBD2046FFF796FF70BD2046FFF792FF47
:101260000020E06370BD03062BD50B0629D594F84A
:1012700039002128F6D1A068B0F5805F01D120693E
:10128000B0B1206A411C2162216800784860E08C7E
:10129000401E0004000CE084E4D12068C16821F005
:1012A0008001C1602068C16841F04001C16070BD2B
:1012B000206A0088C0F308005060206A801C206209
:1012C000E5E74006F3D54806F1D5D168204621F080
:1012D0004001D160202184F8391000F076F870BD0B
:1012E000251D000870B5040004D094F839000025CD
:1012F00010B106E0012070BD84F83850204600F09F
:1013000023F8242084F839002068C16821F40051B2
:10131000C160204600F062FD2068016921F490411F
:1013200001612068416921F02A0141612068C1689A
:1013300041F40051C160E563202084F8390084F84D
:101340003A00002070BD000030B585B00024009444
:101350000194029403940068184988422CD11848DB
:10136000816941F480418161816901F48041049186
:10137000816941F0040181618069124D00F004002F
:1013800004904FF40070009002200190032003901D
:1013900069462846FFF7BAF92815CDE900046946E1
:1013A00028460294FFF7B2F9002211462520FFF7E4
:1013B00013FB2520FFF702FB05B030BD00380140CC
:1013C000001002400008014070477047FEE76420AB
:1013D00000F018BC10B54FF47A7000F013FCBDE8B3
:1013E000104000F083BE000070B5054608680C464A
:1013F000804721790246C1F34000824205D101F0C5
:10140000010290421CD108071AD40F488A0602D460
:101410000268C4F80B202A880068801AD4F80B20D0
:10142000904209D921F0200020712068804721795D
:1014300060F34101217170BD41F02000207170BD49
:1014400021F02000FAE700007400002010B50446E7
:1014500000F013F82046BDE8104000F093B90021D9
:1014600007E0D0F80920535C43F001035354491CB2
:10147000C9B2427B8A42F4D870472DE9F84F002563
:101480000446A94600F1160A55E0E06850F8250028
:1014900090F80D800079032819D1D4F8060050F88F
:1014A00025000079000712D400231A4603212046A4
:1014B000CDF8009000F0D7F9E06850F825000168F9
:1014C00050468847E168A07D51F825100871002634
:1014D0002DE0E06850F82500D0F809008719387829
:1014E000C10722D00221B1EB500F03D00321B1EB91
:1014F000500F1AD1410800231A462046CDF800901B
:1015000000F0B1F9E06806EB8601062250F82500EC
:1015100002EB4101D0F805000844016850468847B5
:10152000A17D387861F347003870761CF6B24645E5
:10153000CFD36D1CEDB2607CA842A6D8BDE8F88F71
:10154000F8B50546C0688A790C46012150F822603A
:10155000FF2A2DD02079C0F3C003C0F30017BB428F
:1015600001D1022102E020F04000207130790328EF
:1015700000D10321E86850F822000068002817D045
:1015800020790C4AC0F380100090D4F8070012684C
:10159000131A6279284600F066F9316805F11600E1
:1015A0008847A87D3071287F217960F386112171E9
:1015B000F8BD0000740000202DE9F84F0D4680466C
:1015C000C168A8790024FF2851F8206060D0012765
:1015D0004FF004094FF0060A57E000BFD6F80900A3
:1015E000005DC1074FD00321B1EB500F4BD0D6F8AF
:1015F000051004EB840007EB40028B5C6A79934290
:1016000000D0EBBB022303EB40030B44B3F800C054
:10161000D5F807309C4536D809EB400C8C44BCF813
:1016200000C09C4502D8BCF1000F2CD10AEB400B46
:1016300001EB0B00006818B32879410628D440F06C
:1016400040002871C0F3801000900121404600F056
:101650000AF9D6F8051001EB0B00016808F1160035
:101660008847D6F8090098F81620015D62F3470113
:10167000015598F81C10287961F38610287100E054
:1016800001E0400604D4641CE4B2707BA042A5D8FB
:10169000BDE8F88F30B50D46044600F0C5F8FF28C8
:1016A00001D0002030BD607C217C884201D3012024
:1016B00030BD35B1E16841F82050607C401C607459
:1016C000EFE7022030BD30B50D46044600F0BBF810
:1016D000FF2801D0002030BDE07AA17A884201D3F2
:1016E000012030BD3DB1D4F8061041F82050E07A19
:1016F000401CE072EEE7022030BD000070B50C46E1
:101700000979C1F3400201F001039A4216D10A0798
:1017100006D4D4F80B20C4F8072041F00801217149
:101720002179C1F38002C1F340018A4202D061797C
:10173000491C61712146FFF703FF18E0104A4388F6
:10174000D4F80B601268D51AB54210D909070ED526
:10175000D4F80710511AC91AC4F807102146FFF728
:101760002BFF207920F00800207100206071207983
:10177000C10861F30410410861F38200207170BD5B
:10178000740000202DE9F041264E0446808831681F
:10179000D4F81220081A002190421BD9002016E02C
:1017A000D4F8062052F82020137923F0080313718F
:1017B000D4F8062052F820205171D4F8062052F8AF
:1017C0002020401CC0B2137923F020031371E27A69
:1017D0008242E5D8002588461BE000BFD4F8060009
:1017E00050F825703879010604D487F8058020F078
:1017F0002800387139462046FFF7F6FD3879810612
:1018000001D5000703D539462046FFF777FF6D1C49
:10181000EDB2E07AA842E1D83068C4F81200BDE821
:10182000F081000074000020427C08E0521EC36872
:1018300092B253F822308B4201D1D0B27047002AC5
:10184000F4D1FF207047C27A09E0521ED0F806306A
:1018500092B253F822308B4201D1D0B27047002AA5
:10186000F3D1FF20704710B5029C8175C27583616A
:10187000047710BD0148FFF7E9BD000078000020A3
:101880000B4910B5A1F12C00FFF704FF0848FFF742
:10189000E6FD0749A1F12C00FFF7C6FF04490F3907
:1018A0008871BDE81040A1F11D00FFF70CBF0000DA
:1018B000A4000020014800F019B8000040000020FA
:1018C0000222027041807047417821B100214170AD
:1018D000C268084610470121F9E7017AD0E90432CD
:1018E00001EB4101C9001846104700000749826812
:1018F0000B689A1A43889A4206D309688160017876
:10190000022901D1FFF7E0BF7047000070000020FE
:10191000094808B5416941F001014161406900226F
:1019200000F00100009011460F20FFF755F8BDE8C8
:1019300008400F20FFF742B80010024070B586B093
:1019400000251C480095019502950395816941F099
:1019500020018161816901F020010491816941F0D8
:1019600004018161816901F004010491816941F000
:10197000080181618069104E00F008000490002287
:1019800004213046FEF7B7FF04200124CDE900040E
:101990000320CDE9024069463046FEF7B7FEE0027B
:1019A000CDE90005694602943046FEF7AFFE06B069
:1019B00070BD00000010024000080140114810B541
:1019C0000F4901604FF4827141604FF40041816022
:1019D0000911C16000214FF400720161C0E90512D4
:1019E0000822C0E90721416281620A21C162FFF732
:1019F000A2FA002803D0BDE81040FEF71DBD10BDBF
:101A000000380040C80000200C4810B50A490160A9
:101A10004FF4E1314160002181600C22C160C0E9D6
:101A200004128161C161FFF75DFC002803D0BDE8AD
:101A30001040FEF701BD10BD0038014064010020D8
:101A4000FEE7704770471CB5FF204FF07E51CDE98F
:101A500000010346024602213F2000F07FFBBDE863
:101A60001C404FF47A7000F0CDB810B500F0DEFBEA
:101A7000BDE81040FFF71EBF0A4601460148FFF7C8
:101A8000FFBA0000C800002010B5406A01684A682B
:101A900022F003024A60416D41F0100141650121CD
:101AA00080F85110FFF746FA10BD10B5406AFFF7F5
:101AB00054FB10BD38B50546446AFEF721FF0246C7
:101AC00028680068800623D42068416821F020013E
:101AD00041602068416821F0020141606421204694
:101AE00000F01AF818B1606D40F020006065A06841
:101AF000002118B92068C26880680090E186012042
:101B000084F85100606D18B12046FFF713FA38BD14
:101B10002046FFF721FB38BD38B50B46009204463E
:101B20000022802100F008F8002804D0606D40F009
:101B300020006065032038BD2DE9F8431E4691461C
:101B400088460446089DFEF7DBFE401B351AFEF76B
:101B5000D7FE074625480068C0F3CB30684338E01D
:101B6000701C37D0FEF7CCFEC01BA84203D215B1C3
:101B7000009860B32CE02068416821F0E0014160EA
:101B80006068B0F5827F0BD1A068B0F5004F02D03D
:101B9000B0F5806F04D12068016821F04001016038
:101BA000A06AB0F5005F09D12068016821F40051F6
:101BB00001602068016841F400510160012084F84F
:101BC0005100002084F850000320BDE8F883002570
:101BD000401E00902068816838EA010004D000218E
:101BE0004945BDD10020F0E70121F9E700000020C0
:101BF00070470000024604210148FEF77CBE000049
:101C00000008014001460148FFF75ABE400000208D
:101C10002DE9F0470025DDF820600E274FF4FE4A3D
:101C200001EB41044FF4E04923FA05F1C5EBC40888
:101C3000D0F810C0C90707EB480802D02CF808A05C
:101C400001E02CF808906D1CEDB2082DECD30021BA
:101C50001E2753464FEA090522FA01FC5FEACC7CB5
:101C6000C1EBC408D0F810C007EB480802D02CF82C
:101C7000083001E02CF80850491CC9B20829EBD300
:101C800000212E2226FA01F7FF07C1EBC40C0769D9
:101C900002EB4C0C02D027F80C3001E027F80C5076
:101CA000491CC9B20829EDD3BDE8F0870648016890
:101CB000491C016005480168491C0160044801682D
:101CC000491C0160FEF722BE500000207000002079
:101CD0007400002030B58FB028216846FEF729FA3D
:101CE00014210AA8FEF725FA01210804CDE9001005
:101CF0000024029402250491CDE907504FF4E0102E
:101D000009906846FEF786FF0F20CDE90A056802B4
:101D1000CDE90C4002210AA80E94FEF78FFE0FB009
:101D200030BD704710B5406A0021C185C184FFF7FE
:101D300029FA10BD0168CA6822F49072CA6001686D
:101D40004A6922F001024A61202180F83A10704766
:101D500010B590F83A10222901D0022010BD8268F7
:101D60004FF480539A4201D1016921B1816A9A42AC
:101D70001BD04AB10AE00268816A5268C2F30802C5
:101D80000A80816A891C08E0026972B1026852689F
:101D900002F07F020A70816A491C8162C18D491E6E
:101DA0000904090CC18503D016E002685268F1E706
:101DB0000168CA6822F02002CA600168CA6822F479
:101DC0008072CA6001684A6922F001024A612021DA
:101DD00080F83A10FFF7F8FA002010BD70B50446FD
:101DE00000680169E26821F44051114301612169F1
:101DF000A0680843616908432168CA6841F20C631E
:101E00009A430243CA6020684169A26921F4407183
:101E1000114341611E492068884202D1FEF7B4FE99
:101E200001E0FEF7A1FE00EBC00101EB00126068CB
:101E300064218000B2FBF0F3B3FBF1F36FF01806FE
:101E40007343B2FBF0F5B2FBF0F605EB83053223EA
:101E500003EB0515B5FBF1F5B6FBF1F605F0F00562
:101E600005EB0615B2FBF0F6B2FBF0F0B0FBF1F0BB
:101E70006FF01802504306EB800003EB0010B0FB3C
:101E8000F1F0216800F00F002844886070BD000068
:101E9000003801400148FFF777B9000064010020D5
:101EA0002DE9F8430025064603274FF002084FF0BE
:101EB000010954E005EB8501F06801EBC50410F859
:101EC000341007293AD2DFE801F0041C21262B3018
:101ED0003500042101EBC401425C09EBC40142540A
:101EE0000521F06801EBC401425C08EBC4014254D7
:101EF0000621F06801EBC40107EBC402415C815488
:101F00001CE02946304600F04FFB17E029463046DA
:101F100000F02EF812E02946304600F0ABF90DE053
:101F20002946304600F052FA08E02946304600F0D3
:101F300084FD03E02946304600F0F7F9F06807EB2E
:101F4000C401415C009108EBC401435C09EBC4018E
:101F5000425C29463046FFF75BFE6D1CEDB2307ADD
:101F6000A842A7D83046BDE8F843FFF7B6BCFEE765
:101F70002DE9F05F0A460446C66801EB820000EBDB
:101F8000C2050C2000EBC507082000EBC509F1597C
:101F9000142000EBC508D9B302EB820C0CEBC20293
:101FA000102303EBC20A4FF0140CE3680CEBC202DF
:101FB00016F80900434953F802B010B1012813D0B4
:101FC00026E02068FEF718F956F80A10FEF746F9E1
:101FD0004FF0FF3A5146FEF77FF95146FEF77CF984
:101FE0005946FEF7B1F811E02068FEF705F956F8FA
:101FF0000A10FEF733F94FF0FF3A5146FEF76CF93D
:102000005146FEF769F95946FEF7F3F846F808001D
:10201000E068DFF8B4A04FF0010B50F8081051450C
:1020200002DB00F809B005E0B1F5000F08DA002284
:1020300000F80920E168C859002801DD401EC85198
:102040001820E66800EBC500305CFEF751F956F841
:1020500008703946FEF7D0F85146FEF7FFF8814682
:10206000192000EBC500305CFEF742F93946FEF757
:10207000C3F85146FEF7F2F880461A2000EBC5007F
:10208000305CFEF735F93946FEF7B6F85146FEF7F3
:10209000E5F807464846FEF730F90BEBC5017054EA
:1020A0004046FEF72AF90222E16802EBC502885495
:1020B0003846FEF722F90322E16802EBC502885494
:1020C000BDE8F09F00007A4400007A437FB50DF12F
:1020D000200C9CE870008DE8780013460A46014603
:1020E000014800F0A9FA7FBD100000200548072232
:1020F0008178491CB1FBF2F302FB1311817000F0EF
:1021000059B80000280000201CB5049CCDE900341B
:1021100013460A460146024800F00EFB1CBD0000B3
:102120001000002008B5009313460A4601460248F5
:1021300000F060FB08BD0000100000200A460146C8
:10214000014800F089BB0000100000200A4601464B
:10215000014800F0B8BB000010000020F0B4064CAD
:10216000DDE904562080A170E27023716571A660DC
:10217000F0BC00F01FB80000280000201CB5049C33
:10218000CDE9003413460A460146024800F0C4F97E
:102190001CBD0000100000201CB5049CCDE90034DB
:1021A00013460A460146024800F0CAFB1CBD000067
:1021B00010000020FEB51C48034685781888DC789E
:1021C0001A7999685B79072D0FD2DFE805F0040AC8
:1021D0000F191E23280003B02146BDE8F040FFF789
:1021E000A1BF00912146FFF7C9FFFEBD0026CDE942
:1021F00000164FF0FF3502952146FFF767FFFEBD41
:1022000000912146FFF780FFFEBD03B0BDE8F0401E
:10221000FFF79CBF00912146FFF7BEFFFEBD03B054
:10222000BDE8F040FFF78ABF28000020014800F019
:1022300003B800001000002070B504460B4D006884
:102240000B49FDF7D9FF064660682968081AFEF7B2
:102250004FF83146FEF770F806D8286860602046CF
:10226000BDE87040FFF71CBE70BD000050000020AC
:1022700000007A442DE9F04704468A4601EB8102CA
:10228000242002EBCA05D4F80C8000EBC5062168B7
:1022900058F80600FDF758FF48F8060007462021C9
:1022A000E06801EBC50140584FF0FF31FEF714F82C
:1022B0003946FEF737F82ED8E16800200AEB8A028B
:1022C00088511C2101EBC503E66802EBCA07022115
:1022D00016F803C04FF0010909EBC70201EBC70173
:1022E0004FF0030808EBC707BCF1010F15D006F843
:1022F00003902823E06803EBC503C35C83542922C1
:10230000E06802EBC502825C42542A21E06801EBDE
:10231000C501415CC155BDE8F087F054E3689854AD
:10232000E2685054E168C855F5E72DE9F0470446E6
:102330008A4601EB8102642002EBCA07D4F80C80C4
:1023400000EBC705216858F80500FDF7FDFE48F8C9
:10235000050006466021E06801EBC70140584FF0D8
:10236000FF31FDF7B9FF3146FDF7DCFF23D8E16807
:1023700000205C22485102EBC703E1680AEB8A05A2
:10238000012705EBCA05022211F803C007EBC506B9
:1023900002EBC5024FF003084FF0FF0908EBC5053B
:1023A000BCF1010F09D0CF54E1688855E168885429
:1023B000E16801F80590BDE8F087C854E36803F8C8
:1023C0000690E1688854E1684855F4E72DE9F05F2C
:1023D0008A4601EB810101EBCA070446C5682F203C
:1023E000302202EBC708342200EBC70902EBC70614
:1023F00015F80900444955F806B010B101280FD06E
:102400001DE02068FDF7F8FE55F80810FDF726FFDF
:102410004FF0FF31FDF760FF5946FDF795FE0DE0E7
:102420002068FDF7E9FE55F80810FDF717FF4FF09B
:10243000FF31FDF751FF5946FDF7DBFEA851E0687B
:10244000DFF8C8C02E2381590AEB8A0505EBCA02C2
:1024500003EBC205614503DB012100F8091009E027
:10246000B1F5000F06DA002100F80910E068415DBF
:10247000491C4155E0688146415D254850F821805E
:10248000C8F30740FDF734FF59F806603146FDF701
:10249000B3FE2049FDF7E2FE8346C8F30720FDF7AF
:1024A00027FF3146FDF7A8FE1A49FDF7D7FE824601
:1024B00008F0FF00FDF71CFF3146FDF79DFE1549B2
:1024C000FDF7CCFE06465846FDF717FF012202EB4A
:1024D000C70209F802005046FDF70FFF0222E1682B
:1024E00002EBC70288543046FDF707FF0322E1687C
:1024F00002EBC7028854E068415D072901D300213F
:102500004155BDE8F09F000000007A4400007A4386
:102510005400002000007F432DE9F0430024DDE952
:1025200007973CE021FA04F5ED0736D004EB84056B
:10253000D0F80CC005EBC40501260CF835604FF04F
:102540003808D0F80CC008EBC5080CF808604FF04C
:102550003C0CC6680CEBC50C4FF0400846F80C70FC
:10256000D0F80CC008EBC50800264CF808604FF006
:10257000440CC6680CEBC50C4FF0460806F80C205E
:102580004FF0450CC6680CEBC50C08EBC50506F80A
:102590000C30D0F80CC00CF80590641CE4B2057A3D
:1025A000A542BFD8BDE8F0832DE9F0470446C668D0
:1025B00001EB810000EBC105382000EBC500315C68
:1025C000442000EBC509452000EBC508462000EB80
:1025D000C507D1B1402000EBC50A216856F80A00B2
:1025E000FDF7B2FD46F80A003C22E16802EBC502A5
:1025F0008958FDF7A1FE08D8E268002002F809001A
:10260000E26802F80800E168C855E068012202EBC0
:10261000C50210F809108154E068022202EBC502DD
:1026200010F808108154E068032202EBC502C15D76
:102630008154BDE8F08700002DE9FF4F9646002247
:102640000C27142518248B4619264FF01A09DDF89B
:102650003CA069E02BFA02F1C90763D002EB8201CA
:10266000C36801EBC20113F831C0BCF1020F1DD1E8
:1026700004EBC10C13F80C80F04517D106EBC10C2C
:1026800013F80C80DDF80CC0E0450FD109EBC10C4C
:1026900013F80C80DDF834C0E04507D107EBC10C1E
:1026A00053F80C80DDF840C0E0453BD04FF0020C01
:1026B00003F831C04FF01008D0F80CC008EBC10887
:1026C0000E9B4CF808304FF00808D0F80CC008EB0F
:1026D000C108BAF1000F0CF808A0D0F80CC007EB45
:1026E000C108109B4CF8083001D0124B00E00023C9
:1026F000D0F80CC005EBC1084CF80830D0F80CC07D
:1027000004EBC1080CF808E0D0F80CC006EBC108D7
:10271000039B0CF80830D0F80CC009EBC1010D9BED
:102720000CF80130521CD2B2017A914292D8BDE825
:10273000FF8F000000007A432DE9FF5F00268B46E3
:10274000054628274FF029084FF02A094FF0200AA4
:102750004BE000BF2BFA06F0C00744D006EB860121
:10276000E86801EBC60410F83410032918D107EB10
:10277000C401425C02998A4212D108EBC401425C56
:1027800003998A420CD109EBC401425C0E998A423A
:1027900006D10AEBC40140580F99FDF7C3FD22D0C2
:1027A000E968032001F83400EA680AEBC4010F98D5
:1027B00050501C22E96802EBC402002088542422F5
:1027C000E96802EBC4028850E96807EBC40202988A
:1027D0008854EA6808EBC40103985054EA6809EB8E
:1027E000C4010E985054761CF6B2287AB042B1D883
:1027F000BDE8FF9F2DE9F04F894600219B46042448
:10280000052592460B460626DDF824E01FE000BFB2
:1028100029FA01F2D20718D001EB8102C76802EB56
:10282000C10204EBC20807F83230D0F80CC00CF833
:1028300008A0D0F80CC005EBC20806EBC2020CF8E9
:1028400008B0D0F80CC00CF802E0491CC9B2027AFA
:102850008A42DDD8BDE8F08F2DE9F047002491468B
:1028600088460546602729E028FA04F0C00723D0EF
:1028700004EB8401E86801EBC40610F83610062961
:1028800006D107EBC60140584946FDF74BFD13D072
:10289000E968062007EBC60201F83600E968002067
:1028A00041F802905C22E96802EBC6028854642277
:1028B000E96802EBC6028850641CE4B2287AA042A0
:1028C000D2D8BDE8F0872DE9F0470025914688462B
:1028D000044630272EE028FA05F0C00728D005EB83
:1028E0008501E06801EBC50610F83610042906D111
:1028F00007EBC60140584946FDF714FD18D0E168C2
:10290000042007EBC60201F83600E168002041F818
:1029100002902F22E16802EBC60288543422E1685B
:1029200002EBC60288502E22E16802EBC6028854F0
:102930006D1CEDB2207AA842CDD8BDE8F08700002A
:102940002DE9FF5F05460020894680460746297A23
:1029500008E000BF29FA00F2D20701D07F1CFFB2C5
:10296000401CC0B28142F5D800264FF0560A4FF005
:10297000570B5DE029FA06F0C00757D006EB860139
:10298000E86801EBC60410F8341005291AD10AEBE7
:10299000C401425C02998A4214D10BEBC401425C2F
:1029A00003998A420ED1582101EBC401425C0E9971
:1029B0008A4207D14C2101EBC40140580F99FDF721
:1029C000B1FC33D0E968052001F834004C21EA68F5
:1029D00001EBC4010F9850504822E96802EBC40291
:1029E000002088545022E96802EBC4028850542227
:1029F000E96802EBC4020AEBC40001F80280EA684D
:102A000002991154EA680BEBC40003991154582140
:102A1000EA6801EBC4010E9850545521E86801EBB7
:102A2000C401475408F1010000F0FF08761CF6B21B
:102A3000287AB0429ED8BDE8FF9F2DE9F05F8B4613
:102A400004460BEB8B0303EBCB055020D4F80C8032
:102A5000552100EBC50601EBC50958F806002168B1
:102A6000FDF772FB48F806000746E068804610F85C
:102A70000900FDF73DFC4C2202EBC502014658F867
:102A80000200FDF7EBFB3946FDF74CFC41D8E1684D
:102A90004FF0000A0BEB8B0341F806A05421E068CD
:102AA00001EBC501012210F801C0482101EBC50668
:102AB00003EBCB0102EBC10310F8068002220327CF
:102AC00002EBC10207EBC107C44510D1562101EB4F
:102AD000C501415CC1545721E06801EBC501415C6F
:102AE00081545821E06801EBC501415C06E000F823
:102AF00003A0E068514600F802A0E068C155E06814
:102B0000815D10F80920491CB1FBF2F302FB13119F
:102B10008155BDE8F09F0907090E002804DB00F18C
:102B2000E02080F80014704700F00F0000F1E02072
:102B300080F8141D704702E008C8121F08C1002A5F
:102B4000FAD170477047002001E001C1121F002A2E
:102B5000FBD17047FDF7E2FEFFF7BCF8FEF7EEFE93
:102B6000FEF7D6FEFEF72AFFFEF74EFFFDF738FC14
:102B7000FDF73DFCFCE70000000000000000010242
:102B80000304060708090000000001020304000016
:102B9000B02B000800000020C8000000362B000801
:102BA000782C0008C800002070080000462B0008A0
:102BB0000024F400010000001000000000000000EC
:102BC0000AD7233C0000000006000000C4020020D9
:102BD000A4010020791A00083F0002FFFFFF000057
:102BE0000000803F3F0002FFFFFF00000000803F29
:102BF000000000000100000000000000F51B0008BC
:102C0000000000000000FF0000A5FF0000FFFF0023
:102C100000FF0000FF7F0000FF000000FF008B00AE
:102C200000000000000000000A00C800F401BC0021
:102C300000200100C0000020010000000000000092
:102C40000000000000450400088600FF00000000AE
:102C500000000000CF13000801B2000020C40000F3
:102C60002001010000000000D51300080000000052
:082C700000000000000000005C
:04000005080000ED02
:00000001FF
